:100000000C942A000C9447000C9447000C94470071
:100010000C9447000C9447000C942C0F0C945F0F29
:100020000C94920F0C94C50F0C9447000C9447004D
:100030000C9447000C9447000C9447000C94470024
:100040000C9447000C9447000C9447000C94470014
:100050000C94470011241FBECFE5D8E0DEBFCDBF12
:1000600011E0A8E6B1E001C01D92A037B107E1F7A9
:1000700011E0A0E6B0E0E2E8F2E302C005900D92E4
:10008000A836B107D9F70E94F4180C943F190C94C4
:100090000000EF92FF920F931F937B018C0120E0F1
:1000A00030E040E05FE40E94F50388238CF0C80153
:1000B000B70120E030E040E05FE40E94C1010E940F
:1000C00085049B01AC01205030404040504806C0A0
:1000D000C801B7010E9485049B01AC01B901CA01A6
:1000E0001F910F91FF90EF900895A0E0B0E0EBE733
:1000F000F0E00C940819DC012B01FA019C9192307C
:1001000008F439C1EB018881823008F433C194309E
:1001100069F4843009F02FC111969C91119789815F
:10012000981709F428C1A0E6B0E025C1843009F48D
:1001300021C18230A9F4923009F01DC19A01AD01AC
:1001400088E0EA010990AE01E90109929E0181501F
:10015000C1F7E201898111969C918923818308C1AD
:10016000923009F407C112962D903C901397EB0141
:100170008A819B811496AD90BD90CD90DC901797AD
:10018000EC80FD800E811F819101281B390BB90184
:1001900037FF04C066277727621B730B6032710537
:1001A0000CF061C0121613066CF537014801062EDB
:1001B00004C096948794779467940A94D2F721E0C8
:1001C00030E040E050E004C0220F331F441F551FB1
:1001D0006A95D2F721503040404050402E213F21B7
:1001E00040235123211531054105510521F021E01E
:1001F00030E040E050E079018A01E628F72808293C
:1002000019293CC0232BD1F1260E371E350146019A
:10021000062E04C096948794779467940A94D2F734
:1002200021E030E040E050E004C0220F331F441FC3
:10023000551F6A95D2F721503040404050402A2146
:100240003B214C215D21211531054105510521F04E
:1002500021E030E040E050E059016A01A628B728CB
:10026000C828D9280BC0821593052CF01C01AA249C
:10027000BB24650103C0EE24FF24870111969C91E5
:10028000D20111968C91981709F445C0992339F041
:10029000A80197012A193B094C095D0906C0A6016E
:1002A00095012E193F09400B510B57FD08C01182D3
:1002B0003382228224833583468357831DC081E0A5
:1002C00081833382228288279927DC01821B930B4A
:1002D000A40BB50B84839583A683B7830DC0220F2F
:1002E000331F441F551F24833583468357838281E0
:1002F000938101979383828324813581468157813D
:10030000DA01C9010197A109B1098F5F9F4FAF4F72
:10031000BF4328F30BC0918333822282EA0CFB1C7B
:100320000C1D1D1DE482F5820683178383E0808304
:10033000248135814681578157FF1AC0C901AA27F8
:1003400097FDA095BA2F81709070A070B0705695EF
:10035000479537952795822B932BA42BB52B848318
:100360009583A683B7838281938101969383828349
:10037000DF0101C0D201CD01CDB7DEB7E2E10C94BF
:100380002419A0E2B0E0E7ECF1E00C9414196983C1
:100390007A838B839C832D833E834F835887E9E048
:1003A000EE2EF12CEC0EFD1ECE010196B7010E943F
:1003B00076068E010F5E1F4FCE010596B8010E9492
:1003C00076068A8991E089278A8BC701B801AE0138
:1003D000475E5F4F0E9475000E94A105A096E6E06F
:1003E0000C943019A0E2B0E0E8EFF1E00C9414199D
:1003F00069837A838B839C832D833E834F835887C5
:10040000F9E0EF2EF12CEC0EFD1ECE010196B701A6
:100410000E9476068E010F5E1F4FCE010596B80131
:100420000E947606C701B801AE01475E5F4F0E9489
:1004300075000E94A105A096E6E00C943019A0E298
:10044000B0E0E5E2F2E00C94081969837A838B83CB
:100450009C832D833E834F835887CE010196BE0136
:10046000675F7F4F0E947606CE010596BE016F5EE4
:100470007F4F0E9476069985923088F08989823074
:10048000C8F0943019F4823051F404C0843029F457
:10049000923081F480E690E0C6C0923049F420E0CA
:1004A0009A858A89981321E02A87CE010996BBC0D4
:1004B000823049F420E09A858A89981321E02A8BBA
:1004C000CE014196B0C02D843E844F8458886D88FB
:1004D0007E888F88988CEE24FF248701AA24BB2471
:1004E000650140E050E060E070E0E0E0F0E0C10174
:1004F00081709070892BE9F0E60CF71C081D191D1E
:100500009A01AB012A0D3B1D4C1D5D1D80E090E062
:10051000A0E0B0E0E614F7040805190520F481E036
:1005200090E0A0E0B0E0BA01A901480F591F6A1F8E
:100530007B1FAA0CBB1CCC1CDD1C97FE08C081E0F5
:1005400090E0A0E0B0E0A82AB92ACA2ADB2A3196B6
:10055000E032F10549F0660C771C881C991C569412
:10056000479437942794C3CFFA85EA892B893C892D
:100570008B859C85280F391F2E5F3F4F17C0CA01FE
:1005800081709070892B61F016950795F794E79428
:1005900080E090E0A0E0B0E8E82AF92A0A2B1B2BC3
:1005A00076956795579547952F5F3F4F77FDE7CF36
:1005B0000CC0440F551F661F771F17FD4160EE0CDE
:1005C000FF1C001F111F21503040403090E05907A0
:1005D00090E0690790E4790760F32B8F3C8FDB0193
:1005E000CA018F779070A070B07080349105A1051A
:1005F000B10561F447FD0AC0E114F10401051105DC
:1006000029F0405C5F4F6F4F7F4F40781A8EFE1786
:1006100011F081E08A8F4D8F5E8F6F8F78A383E01A
:10062000898FCE0149960E94A105A096E2E10C9423
:100630002419A8E1B0E0EFE1F3E00C94101969830C
:100640007A838B839C832D833E834F835887B9E0C5
:10065000EB2EF12CEC0EFD1ECE010196B7010E948F
:1006600076068E010F5E1F4FCE010596B8010E94DF
:1006700076062985223008F47EC03989323010F49C
:10068000B8017CC08A859A8989278A87243011F02D
:10069000223031F4231709F06EC060E670E06EC0BE
:1006A000343039F41D861E861F86188A1C861B86E8
:1006B00004C0323021F484E08987B7015FC02B8504
:1006C0003C858B899C89281B390B3C872B87ED84C3
:1006D000FE840F851889AD88BE88CF88D88CEA142F
:1006E000FB040C051D0540F4EE0CFF1C001F111F40
:1006F000215030403C872B8720E030E040E050E044
:1007000080E090E0A0E0B0E460E070E0EA14FB0478
:100710000C051D0540F0282B392B4A2B5B2BEA18C2
:10072000FB080C091D09B695A79597958795EE0CC2
:10073000FF1C001F111F6F5F7F4F6F31710531F775
:10074000DA01C9018F779070A070B0708034910584
:10075000A105B10561F427FD0AC0E114F10401050A
:10076000110529F0205C3F4F4F4F5F4F20782D87B8
:100770003E874F87588BBE01675F7F4FCB010E943A
:10078000A1056896EAE00C942C19A8E1B0E0EBEC26
:10079000F3E00C94141969837A838B839C832D83F3
:1007A0003E834F83588789E0E82EF12CEC0EFD1E26
:1007B000CE010196B7010E9476068E010F5E1F4F93
:1007C000CE010596B8010E9476068985823040F0F8
:1007D0008989823028F0C701B8010E94EE0601C065
:1007E0008FEF6896E6E00C943019A8E1B0E0EBEFEB
:1007F000F3E00C94141969837A838B839C832D8393
:100800003E834F83588789E0E82EF12CEC0EFD1EC5
:10081000CE010196B7010E9476068E010F5E1F4F32
:10082000CE010596B8010E9476068985823040F097
:100830008989823028F0C701B8010E94EE0601C004
:100840008FEF6896E6E00C943019A8E1B0E0EBE297
:10085000F4E00C94141969837A838B839C832D8331
:100860003E834F83588789E0E82EF12CEC0EFD1E65
:10087000CE010196B7010E9476068E010F5E1F4FD2
:10088000CE010596B8010E9476068985823040F037
:100890008989823028F0C701B8010E94EE0601C0A4
:1008A00081E06896E6E00C943019A8E1B0E0EBE551
:1008B000F4E00C94141969837A838B839C832D83D1
:1008C0003E834F83588789E0E82EF12CEC0EFD1E05
:1008D000CE010196B7010E9476068E010F5E1F4F72
:1008E000CE010596B8010E9476068985823040F0D7
:1008F0008989823028F0C701B8010E94EE0601C044
:1009000081E06896E6E00C943019ACE0B0E0EBE8EA
:10091000F4E00C94181969837A838B839C83CE014D
:100920000196BE016B5F7F4F0E9476068D818230FB
:1009300061F1823050F1843021F48E81882351F1AD
:100940002EC02F81388537FD20C06E812F313105B3
:100950001CF06623F9F023C08EE190E0821B930B1C
:1009600029853A854B855C8504C056954795379512
:1009700027958A95D2F76623B1F05095409530952A
:1009800021953F4F4F4F5F4F0EC020E030E040E0D9
:1009900050E009C02FEF3FEF4FEF5FE704C020E0CA
:1009A00030E040E050E8B901CA012C96E2E00C9436
:1009B0003419A8E0B0E0EFEDF4E00C9410197B01DD
:1009C0008C01611571058105910519F482E0898317
:1009D00060C083E089838EE1C82ED12CDC82CB827B
:1009E000ED82FE820F831887C801B7010E9452056D
:1009F000FC013197F7FF3BC0222733272E1B3F0B0B
:100A000057016801022E04C0D694C794B794A794E6
:100A10000A94D2F740E050E060E070E081E090E0BE
:100A2000A0E0B0E004C0880F991FAA1FBB1F2A9541
:100A3000D2F70197A109B1098E219F21A023B123EB
:100A40000097A105B10521F041E050E060E070E0C1
:100A50004A295B296C297D294D835E836F837887C2
:100A60008EE190E08E1B9F0B9C838B8312C030978E
:100A700081F00E2E04C0EE0CFF1C001F111F0A9403
:100A8000D2F7ED82FE820F831887CE1ADF0ADC824E
:100A9000CB821A82CE0101960E94A1052896EAE037
:100AA0000C942C19EF92FF920F931F937B018C01F2
:100AB00080E0E81680E0F80681E0080780E018078B
:100AC00088F48FEFE816F1040105110531F028F0E4
:100AD00088E090E0A0E0B0E017C080E090E0A0E007
:100AE000B0E012C080E0E81680E0F80680E0080779
:100AF00081E0180728F088E190E0A0E0B0E004C0B1
:100B000080E190E0A0E0B0E020E230E040E050E0A2
:100B1000281B390B4A0B5B0B04C016950795F794FD
:100B2000E7948A95D2F7F701E859FF4F8081281B97
:100B3000310941095109C9011F910F91FF90EF90AF
:100B40000895DF92EF92FF920F931F93FC01E480D0
:100B5000F58006811781D1808081823048F480E061
:100B600090E0A0E1B0E0E82AF92A0A2B1B2BA5C0EF
:100B7000843009F49FC0823021F4EE24FF248701E1
:100B800005C0E114F1040105110519F4E0E0F0E0FD
:100B900096C0628173819FEF623879070CF05BC069
:100BA00022E83FEF261B370B2A3131052CF020E0DD
:100BB00030E040E050E02AC0B801A701022E04C096
:100BC00076956795579547950A94D2F781E090E01E
:100BD000A0E0B0E004C0880F991FAA1FBB1F2A9590
:100BE000D2F70197A109B1098E219F21A023B1233A
:100BF0000097A105B10521F081E090E0A0E0B0E010
:100C00009A01AB01282B392B4A2B5B2BDA01C90146
:100C10008F779070A070B07080349105A105B105F8
:100C200039F427FF09C0205C3F4F4F4F5F4F04C08E
:100C3000215C3F4F4F4F5F4FE0E0F0E02030A0E0FD
:100C40003A07A0E04A07A0E45A0710F0E1E0F0E01C
:100C500079018A0127C06038710564F5FB01E1580C
:100C6000FF4FD801C7018F779070A070B0708034AB
:100C70009105A105B10539F4E7FE0DC080E490E0CF
:100C8000A0E0B0E004C08FE390E0A0E0B0E0E80EA8
:100C9000F91E0A1F1B1F17FF05C016950795F7942D
:100CA000E794319687E016950795F794E7948A952F
:100CB000D1F705C0EE24FF248701EFEFF0E06E2F9F
:100CC000679566276795902F9F77D794DD24D794F3
:100CD0008E2F8695492F462B582F5D29B701CA01C3
:100CE0001F910F91FF90EF90DF900895FC01DB01C1
:100CF000408151812281622F6F7770E0221F22276D
:100D0000221F9381892F880F822B282F30E0991F73
:100D10009927991F11969C93119721153105A9F5D3
:100D2000411551056105710511F482E037C082E873
:100D30009FEF13969C938E9312979A01AB0167E0F5
:100D4000220F331F441F551F6A95D1F783E08C9300
:100D50000DC0220F331F441F551F12968D919C9179
:100D60001397019713969C938E931297203080E0EF
:100D7000380780E0480780E4580758F314962D930D
:100D80003D934D935C93179708952F3F310579F468
:100D9000411551056105710519F484E08C9308959E
:100DA00064FF03C081E08C9312C01C9210C02F57C7
:100DB000304013963C932E93129783E08C9387E0F8
:100DC000440F551F661F771F8A95D1F770641496DC
:100DD0004D935D936D937C93179708951F93DC015A
:100DE000FB019C91923008F447C08081823008F466
:100DF00043C0943051F411961C91843099F581814F
:100E0000682F70E0611B71093FC0843021F092307F
:100E100031F48230B9F18181882389F12DC0119696
:100E20001C9111978230F1F081811817D9F4129634
:100E30002D913C911397828193818217930794F0AF
:100E400028173907BCF014968D919D910D90BC9197
:100E5000A02D2481358146815781281739074A07FB
:100E60005B0718F4112341F00AC082179307A40707
:100E7000B50740F4112319F061E070E005C06FEF91
:100E80007FEF02C060E070E0CB011F910895DF9317
:100E9000CF9300D000D0CDB7DEB78A8319828A8184
:100EA000282F30E03C832B838B819C8187309105F8
:100EB00009F424C12B813C81283031054CF58B810C
:100EC0009C818330910509F4A5C02B813C8124309D
:100ED00031058CF48B819C818130910509F460C0CF
:100EE0002B813C81223031050CF077C08B819C81B5
:100EF0000097C9F1EAC12B813C812530310509F405
:100F0000C3C08B819C81863091050CF0DAC09FC0F4
:100F10002B813C812B30310509F464C18B819C818C
:100F20008C3091056CF42B813C812930310509F41A
:100F30001FC18B819C818A3091050CF036C1FBC0AA
:100F40002B813C812E30310509F486C18B819C8137
:100F50008F30910509F49DC12B813C812C303105E6
:100F600009F45DC1B2C1AFE4B0E0EFE4F0E080812C
:100F70008E7F8C93AFE4B0E0EFE4F0E080818D7F72
:100F80008C93AEE4B0E0EEE4F0E08081877F8C9358
:100F9000AEE4B0E0EEE4F0E080818F7E8C9395C10A
:100FA000AFE4B0E0EFE4F0E0808181608C93AFE4E7
:100FB000B0E0EFE4F0E080818D7F8C93AEE4B0E0B0
:100FC000EEE4F0E08081877F8C93AEE4B0E0EEE465
:100FD000F0E080818F7E8C9378C1AFE4B0E0EFE4E5
:100FE000F0E080818E7F8C93AFE4B0E0EFE4F0E03E
:100FF000808182608C93AEE4B0E0EEE4F0E080812A
:10100000877F8C93AEE4B0E0EEE4F0E080818F7EE9
:101010008C935BC1AFE4B0E0EFE4F0E080818160ED
:101020008C93AFE4B0E0EFE4F0E0808182608C93D9
:10103000AEE4B0E0EEE4F0E08081877F8C93AEE434
:10104000B0E0EEE4F0E080818F7E8C933EC1AFE4AF
:10105000B0E0EFE4F0E080818E7F8C93AFE4B0E00D
:10106000EFE4F0E080818D7F8C93AEE4B0E0EEE4BD
:10107000F0E0808188608C93AEE4B0E0EEE4F0E0D4
:1010800080818F7E8C9321C1AFE4B0E0EFE4F0E08B
:10109000808181608C93AFE4B0E0EFE4F0E0808188
:1010A0008D7F8C93AEE4B0E0EEE4F0E08081886068
:1010B0008C93AEE4B0E0EEE4F0E080818F7E8C9320
:1010C00004C1AFE4B0E0EFE4F0E080818E7F8C9368
:1010D000AFE4B0E0EFE4F0E0808182608C93AEE4B6
:1010E000B0E0EEE4F0E0808188608C93AEE4B0E0A4
:1010F000EEE4F0E080818F7E8C93E7C0AFE4B0E057
:10110000EFE4F0E0808181608C93AFE4B0E0EFE445
:10111000F0E0808182608C93AEE4B0E0EEE4F0E039
:10112000808188608C93AEE4B0E0EEE4F0E08081F2
:101130008F7E8C93CAC0AFE4B0E0EFE4F0E0808132
:101140008E7F8C93AFE4B0E0EFE4F0E080818D7FA0
:101150008C93AEE4B0E0EEE4F0E08081877F8C9386
:10116000AEE4B0E0EEE4F0E0808180618C93ADC04D
:10117000AFE4B0E0EFE4F0E0808181608C93AFE415
:10118000B0E0EFE4F0E080818D7F8C93AEE4B0E0DE
:10119000EEE4F0E08081877F8C93AEE4B0E0EEE493
:1011A000F0E0808180618C9390C0AFE4B0E0EFE428
:1011B000F0E080818E7F8C93AFE4B0E0EFE4F0E06C
:1011C000808182608C93AEE4B0E0EEE4F0E0808158
:1011D000877F8C93AEE4B0E0EEE4F0E08081806144
:1011E0008C9373C0AFE4B0E0EFE4F0E08081816005
:1011F0008C93AFE4B0E0EFE4F0E0808182608C9308
:10120000AEE4B0E0EEE4F0E08081877F8C93AEE462
:10121000B0E0EEE4F0E0808180618C9356C0AFE4F2
:10122000B0E0EFE4F0E080818E7F8C93AFE4B0E03B
:10123000EFE4F0E080818D7F8C93AEE4B0E0EEE4EB
:10124000F0E0808188608C93AEE4B0E0EEE4F0E002
:10125000808180618C9339C0AFE4B0E0EFE4F0E0CE
:1012600080818E7F8C93AFE4B0E0EFE4F0E080818A
:1012700082608C93AEE4B0E0EEE4F0E080818860C0
:101280008C93AEE4B0E0EEE4F0E0808180618C937A
:101290001CC0AFE4B0E0EFE4F0E0808181608C93AB
:1012A000AFE4B0E0EFE4F0E0808182608C93AEE4E4
:1012B000B0E0EEE4F0E0808188608C93AEE4B0E0D2
:1012C000EEE4F0E0808180618C9389810F900F9033
:1012D0000F900F90CF91DF910895DF93CF9300D0BF
:1012E00000D0CDB7DEB78A8319828A81282F30E0FB
:1012F0003C832B838B819C818330910509F470C0E2
:101300002B813C812430310584F48B819C81813098
:101310009105D1F12B813C81223031050CF04AC07E
:101320008B819C810097D1F0C9C02B813C812530F5
:10133000310509F481C08B819C81853091050CF4C5
:1013400065C02B813C812630310509F48BC08B812F
:101350009C818730910509F49BC0B0C0AEE4B0E039
:10136000EEE4F0E080818E7F8C93AEE4B0E0EEE4BA
:10137000F0E080818D7F8C93AEE4B0E0EEE4F0E0AD
:1013800080818B7F8C939CC0AEE4B0E0EEE4F0E013
:10139000808181608C93AEE4B0E0EEE4F0E0808187
:1013A0008D7F8C93AEE4B0E0EEE4F0E080818B7F43
:1013B0008C9386C0AEE4B0E0EEE4F0E080818E7FF6
:1013C0008C93AEE4B0E0EEE4F0E0808182608C9338
:1013D000AEE4B0E0EEE4F0E080818B7F8C9370C0EF
:1013E000AEE4B0E0EEE4F0E0808181608C93AEE4A6
:1013F000B0E0EEE4F0E0808182608C93AEE4B0E097
:10140000EEE4F0E080818B7F8C935AC0AEE4B0E0D4
:10141000EEE4F0E080818E7F8C93AEE4B0E0EEE409
:10142000F0E080818D7F8C93AEE4B0E0EEE4F0E0FC
:10143000808184608C9344C0AEE4B0E0EEE4F0E0E0
:10144000808181608C93AEE4B0E0EEE4F0E08081D6
:101450008D7F8C93AEE4B0E0EEE4F0E080818460B8
:101460008C932EC0AEE4B0E0EEE4F0E080818E7F9D
:101470008C93AEE4B0E0EEE4F0E0808182608C9387
:10148000AEE4B0E0EEE4F0E0808184608C9318C0BC
:10149000AEE4B0E0EEE4F0E0808181608C93AEE4F5
:1014A000B0E0EEE4F0E0808182608C93AEE4B0E0E6
:1014B000EEE4F0E0808184608C9302C081E0898357
:1014C00089810F900F900F900F90CF91DF91089529
:1014D000DF93CF93CDB7DEB727970FB6F894DEBF73
:1014E0000FBECDBF8A836B8319828B81882309F05D
:1014F0005EC08A81282F30E03F832E838E819F81BA
:101500008130910521F12E813F81223031052CF46B
:101510008E819F81009761F047C02E813F812230EC
:10152000310521F18E819F818330910571F13CC09D
:10153000AFE4B0E0EFE4F0E080818F7B8C93AFE428
:10154000B0E0EFE4F0E080818F778C9394C0AFE45B
:10155000B0E0EFE4F0E0808180648C93AFE4B0E031
:10156000EFE4F0E080818F778C9385C0AFE4B0E04A
:10157000EFE4F0E080818F7B8C93AFE4B0E0EFE4A8
:10158000F0E0808180688C9376C0AFE4B0E0EFE457
:10159000F0E0808180648C93AFE4B0E0EFE4F0E0B1
:1015A000808180688C9367C081E0898364C08B816F
:1015B000813009F05EC08A81282F30E03D832C8382
:1015C0008C819D818130910521F12C813D812230DA
:1015D00031052CF48C819D81009761F047C02C81EE
:1015E0003D812230310521F18C819D81833091052F
:1015F00071F13CC0AFE4B0E0EFE4F0E080818F7EB9
:101600008C93AFE4B0E0EFE4F0E080818F7D8C93C9
:1016100032C0AFE4B0E0EFE4F0E0808180618C9311
:10162000AFE4B0E0EFE4F0E080818F7D8C9323C0E5
:10163000AFE4B0E0EFE4F0E080818F7E8C93AFE424
:10164000B0E0EFE4F0E0808180628C9314C0AFE4FE
:10165000B0E0EFE4F0E0808180618C93AFE4B0E033
:10166000EFE4F0E0808180628C9305C081E08983A3
:1016700002C081E08983898127960FB6F894DEBF86
:101680000FBECDBFCF91DF910895DF93CF93CDB73C
:10169000DEB727970FB6F894DEBF0FBECDBF8A83A3
:1016A0006B8319828B81882309F05EC08A81282F81
:1016B00030E03F832E838E819F818130910521F11F
:1016C0002E813F81223031052CF48E819F8100973D
:1016D00061F047C02E813F812230310521F18E819A
:1016E0009F818330910571F13CC0AFE4B0E0EFE43D
:1016F000F0E080818F7B8C93AFE4B0E0EFE4F0E02A
:1017000080818F778C9394C0AFE4B0E0EFE4F0E099
:10171000808180648C93AFE4B0E0EFE4F0E08081FE
:101720008F778C9385C0AFE4B0E0EFE4F0E0808188
:101730008F7B8C93AFE4B0E0EFE4F0E080818068D1
:101740008C9376C0AFE4B0E0EFE4F0E08081806499
:101750008C93AFE4B0E0EFE4F0E0808180688C939C
:1017600067C081E0898364C08B81813009F05EC0ED
:101770008A81282F30E03D832C838C819D818130AC
:10178000910521F12C813D81223031052CF48C8191
:101790009D81009761F047C02C813D812230310549
:1017A00021F18C819D818330910571F13CC0AFE4C2
:1017B000B0E0EFE4F0E080818F7E8C93AFE4B0E0A6
:1017C000EFE4F0E080818F7D8C9332C0AFE4B0E035
:1017D000EFE4F0E0808180618C93AFE4B0E0EFE46F
:1017E000F0E080818F7D8C9323C0AFE4B0E0EFE424
:1017F000F0E080818F7E8C93AFE4B0E0EFE4F0E026
:10180000808180628C9314C0AFE4B0E0EFE4F0E03C
:10181000808180618C93AFE4B0E0EFE4F0E0808100
:1018200080628C9305C081E0898302C081E0898356
:10183000898127960FB6F894DEBF0FBECDBFCF913A
:10184000DF910895DF93CF93CDB7DEB727970FB61B
:10185000F894DEBF0FBECDBF8A836B8319828B8164
:10186000882309F05EC08A81282F30E03F832E83D1
:101870008E819F818130910521F12E813F8122301F
:1018800031052CF48E819F81009761F047C02E8135
:101890003F812230310521F18E819F818330910576
:1018A00071F13CC0AFE4B0E0EFE4F0E080818F7B09
:1018B0008C93AFE4B0E0EFE4F0E080818F778C931D
:1018C00094C0AFE4B0E0EFE4F0E0808180648C93FA
:1018D000AFE4B0E0EFE4F0E080818F778C9385C0D7
:1018E000AFE4B0E0EFE4F0E080818F7B8C93AFE475
:1018F000B0E0EFE4F0E0808180688C9376C0AFE4E4
:10190000B0E0EFE4F0E0808180648C93AFE4B0E07D
:10191000EFE4F0E0808180688C9367C081E0898388
:1019200064C08B81813009F05EC08A81282F30E04D
:101930003D832C838C819D818130910521F12C8107
:101940003D81223031052CF48C819D81009761F01E
:1019500047C02C813D812230310521F18C819D8150
:101960008330910571F13CC0AFE4B0E0EFE4F0E00A
:1019700080818F7E8C93AFE4B0E0EFE4F0E0808173
:101980008F7D8C9332C0AFE4B0E0EFE4F0E0808173
:1019900080618C93AFE4B0E0EFE4F0E080818F7D74
:1019A0008C9323C0AFE4B0E0EFE4F0E080818F7E61
:1019B0008C93AFE4B0E0EFE4F0E0808180628C9340
:1019C00014C0AFE4B0E0EFE4F0E0808180618C937C
:1019D000AFE4B0E0EFE4F0E0808180628C9305C07A
:1019E00081E0898302C081E08983898127960FB6CF
:1019F000F894DEBF0FBECDBFCF91DF910895DF9386
:101A0000CF93CDB7DEB727970FB6F894DEBF0FBEE2
:101A1000CDBF8A836B8319828B81882309F05EC0D6
:101A20008A81282F30E03F832E838E819F818130F1
:101A3000910521F12E813F81223031052CF48E81D8
:101A40009F81009761F047C02E813F812230310590
:101A500021F18E819F818330910571F13CC0AFE40B
:101A6000B0E0EFE4F0E080818F7B8C93AFE4B0E0F6
:101A7000EFE4F0E080818F778C9394C0AFE4B0E026
:101A8000EFE4F0E0808180648C93AFE4B0E0EFE4B9
:101A9000F0E080818F778C9385C0AFE4B0E0EFE415
:101AA000F0E080818F7B8C93AFE4B0E0EFE4F0E076
:101AB000808180688C9376C0AFE4B0E0EFE4F0E022
:101AC000808180648C93AFE4B0E0EFE4F0E080814B
:101AD00080688C9367C081E0898364C08B8181308A
:101AE00009F05EC08A81282F30E03D832C838C81F1
:101AF0009D818130910521F12C813D81223031057C
:101B00002CF48C819D81009761F047C02C813D8130
:101B10002230310521F18C819D818330910571F155
:101B20003CC0AFE4B0E0EFE4F0E080818F7E8C93C6
:101B3000AFE4B0E0EFE4F0E080818F7D8C9332C0C1
:101B4000AFE4B0E0EFE4F0E0808180618C93AFE43B
:101B5000B0E0EFE4F0E080818F7D8C9323C0AFE4B0
:101B6000B0E0EFE4F0E080818F7E8C93AFE4B0E0F2
:101B7000EFE4F0E0808180628C9314C0AFE4B0E0C9
:101B8000EFE4F0E0808180618C93AFE4B0E0EFE4BB
:101B9000F0E0808180628C9305C081E0898302C07F
:101BA00081E08983898127960FB6F894DEBF0FBE46
:101BB000CDBFCF91DF910895DF93CF9300D0CDB704
:101BC000DEB79A838983ECE4F0E089819A8191837E
:101BD00080830F900F90CF91DF910895DF93CF9383
:101BE00000D0CDB7DEB79A838983EAE4F0E089813B
:101BF0009A81918380830F900F90CF91DF91089508
:101C0000DF93CF9300D0CDB7DEB79A838983E8E422
:101C1000F0E089819A81918380830F900F90CF911A
:101C2000DF910895DF93CF93CDB7DEB7A9E5B0E09C
:101C3000E9E5F0E0808184608C93CF91DF91089595
:101C4000DF93CF93CDB7DEB7A9E5B0E0E9E5F0E0EB
:101C500080818B7F8C93CF91DF910895DF93CF9319
:101C6000CDB7DEB7A9E5B0E0E9E5F0E080818061BD
:101C70008C93CF91DF910895DF93CF93CDB7DEB7EB
:101C8000A9E5B0E0E9E5F0E080818F7E8C93CF910B
:101C9000DF910895DF93CF93CDB7DEB7A9E5B0E02C
:101CA000E9E5F0E0808188608C93CF91DF91089521
:101CB000DF93CF93CDB7DEB7A9E5B0E0E9E5F0E07B
:101CC0008081877F8C93CF91DF910895DF93CF93AD
:101CD000CDB7DEB7A9E5B0E0E9E5F0E0808180624C
:101CE0008C93CF91DF910895DF93CF93CDB7DEB77B
:101CF000A9E5B0E0E9E5F0E080818F7D8C93CF919C
:101D0000DF910895DF93CF9300D0CDB7DEB79A83EC
:101D10008983EAE4F0E089819A81918380830F903E
:101D20000F90CF91DF910895DF93CF9300D0CDB77F
:101D3000DEB79A838983E8E4F0E089819A81918310
:101D400080830F900F90CF91DF910895DF93CF9311
:101D500000D0CDB7DEB79A838983E6E4F0E08981CD
:101D60009A81918380830F900F90CF91DF91089596
:101D7000DF93CF9300D00F92CDB7DEB79B838A83DA
:101D800019828A819B81009739F08A819B81909387
:101D900069018093680102C081E0898389810F9085
:101DA0000F900F90CF91DF910895DF93CF9300D0E4
:101DB0000F92CDB7DEB79B838A8319828A819B817C
:101DC000009739F08A819B8190936B0180936A011F
:101DD00002C081E0898389810F900F900F90CF918D
:101DE000DF910895DF93CF9300D00F92CDB7DEB788
:101DF0009B838A8319828A819B81009739F08A812B
:101E00009B8190936D0180936C0102C081E0898376
:101E100089810F900F900F90CF91DF910895DF93FC
:101E2000CF9300D00F92CDB7DEB79B838A83198200
:101E30008A819B81009739F08A819B8190936F0101
:101E400080936E0102C081E0898389810F900F9099
:101E50000F90CF91DF9108951F920F920FB60F92BE
:101E600011242F933F934F935F936F937F938F939F
:101E70009F93AF93BF93EF93FF93DF93CF93CDB730
:101E8000DEB78091680190916901009729F0E09197
:101E90006E01F0916F010995CF91DF91FF91EF9164
:101EA000BF91AF919F918F917F916F915F914F9172
:101EB0003F912F910F900FBE0F901F9018951F927A
:101EC0000F920FB60F9211242F933F934F935F936E
:101ED0006F937F938F939F93AF93BF93EF93FF93F2
:101EE000DF93CF93CDB7DEB780916A0190916B01FC
:101EF000009729F0E0916A01F0916B010995CF916B
:101F0000DF91FF91EF91BF91AF919F918F917F9161
:101F10006F915F914F913F912F910F900FBE0F9056
:101F20001F9018951F920F920FB60F9211242F93A6
:101F30003F934F935F936F937F938F939F93AF9351
:101F4000BF93EF93FF93DF93CF93CDB7DEB780912D
:101F50006C0190916D01009729F0E0916C01F09176
:101F60006D010995CF91DF91FF91EF91BF91AF91F5
:101F70009F918F917F916F915F914F913F912F91A1
:101F80000F900FBE0F901F9018951F920F920FB6D3
:101F90000F9211242F933F934F935F936F937F93EF
:101FA0008F939F93AF93BF93EF93FF93DF93CF9361
:101FB000CDB7DEB78091680190916901009729F053
:101FC000E0916801F09169010995CF91DF91FF914E
:101FD000EF91BF91AF919F918F917F916F915F91A1
:101FE0004F913F912F910F900FBE0F901F9018951A
:101FF000DF93CF9300D000D0CDB7DEB78A831982AC
:102000008A81282F30E03C832B838B819C81009731
:1020100031F02B813C812130310549F010C0AFE512
:10202000B0E0EFE5F0E080818F778C930AC0AFE5F8
:10203000B0E0EFE5F0E0808180688C9302C081E041
:10204000898389810F900F900F900F90CF91DF912E
:102050000895DF93CF9300D000D00F92CDB7DEB7B5
:102060008A836B8319828A818430B0F58A81282F14
:1020700030E03D832C838C819D8181309105D1F0AE
:102080002C813D81223031052CF48C819D8100977B
:1020900061F01FC02C813D812230310581F08C819F
:1020A0009D818330910581F014C0EAE3F0E08B81DB
:1020B000808314C0E7E3F0E08B8180830FC0E4E30A
:1020C000F0E08B8180830AC0E1E3F0E08B818083C4
:1020D00005C081E0898302C081E0898389810F90F6
:1020E0000F900F900F900F90CF91DF910895DF9395
:1020F000CF9300D000D00F92CDB7DEB78A836B8329
:1021000019828A818430B0F58A81282F30E03D839E
:102110002C838C819D8181309105D1F02C813D8172
:10212000223031052CF48C819D81009761F01FC015
:102130002C813D812230310581F08C819D8183305D
:10214000910581F014C0EBE3F0E08B81808314C033
:10215000E8E3F0E08B8180830FC0E5E3F0E08B8162
:1021600080830AC0E2E3F0E08B81808305C081E0D8
:10217000898302C081E0898389810F900F900F903D
:102180000F900F90CF91DF910895DF93CF9300D000
:1021900000D000D0CDB7DEB78A837C836B831982F1
:1021A0008A81843008F03EC08A81282F30E03E8347
:1021B0002D838D819E8181309105E1F02D813E81BD
:1021C000223031052CF48D819E81009761F027C06B
:1021D0002D813E8122303105A1F08D819E81833099
:1021E0009105B1F01CC0E9E3F0E08081EB81FC8156
:1021F00080831AC0E6E3F0E08081EB81FC8180837C
:1022000013C0E3E3F0E08081EB81FC8180830CC0AC
:10221000E0E3F0E08081EB81FC81808305C081E018
:10222000898302C081E08983898126960FB6F8945C
:10223000DEBF0FBECDBFCF91DF910895DF93CF9367
:10224000CDB7DEB728970FB6F894DEBF0FBECDBF6F
:102250008A836B834C8319828B81883008F0F4C0A9
:102260008C81882309F077C08A81282F30E0388755
:102270002F838F8198858130910559F12F81388581
:10228000223031052CF48F819885009769F060C069
:102290002F8138852230310589F18F8198858330EF
:1022A000910509F440C054C0AAE3B0E0EAE3F0E0CD
:1022B0008081482F8B81282F30E081E090E0022E32
:1022C00002C0880F991F0A94E2F7809584238C93AB
:1022D000BDC0A7E3B0E0E7E3F0E08081482F8B8149
:1022E000282F30E081E090E0022E02C0880F991F75
:1022F0000A94E2F7809584238C93A8C0A4E3B0E00D
:10230000E4E3F0E08081482F8B81282F30E081E0EA
:1023100090E0022E02C0880F991F0A94E2F7809580
:1023200084238C9393C0A1E3B0E0E1E3F0E08081EB
:10233000482F8B81282F30E081E090E0022E02C0F0
:10234000880F991F0A94E2F7809584238C937EC0AE
:1023500081E089837BC08C81813009F072C08A81E1
:10236000282F30E03E832D838D819E818130910521
:1023700049F12D813E81223031052CF48D819E81E1
:10238000009761F05BC02D813E812230310571F1F3
:102390008D819E8183309105E9F150C0AAE3B0E0C0
:1023A000EAE3F0E08081482F8B81282F30E081E044
:1023B00090E0022E02C0880F991F0A94E2F7842B46
:1023C0008C9344C0A7E3B0E0E7E3F0E08081482FBE
:1023D0008B81282F30E081E090E0022E02C0880F30
:1023E000991F0A94E2F7842B8C9330C0A4E3B0E0E9
:1023F000E4E3F0E08081482F8B81282F30E081E0FA
:1024000090E0022E02C0880F991F0A94E2F7842BF5
:102410008C931CC0A1E3B0E0E1E3F0E08081482FA1
:102420008B81282F30E081E090E0022E02C0880FDF
:10243000991F0A94E2F7842B8C9308C081E089836A
:1024400005C081E0898302C081E089838981289663
:102450000FB6F894DEBF0FBECDBFCF91DF910895C8
:10246000DF93CF93CDB7DEB728970FB6F894DEBFD2
:102470000FBECDBF8A836B834C8319828B818830DA
:1024800008F0F4C08C81882309F077C08A81282F56
:1024900030E038872F838F8198858130910559F1FD
:1024A0002F813885223031052CF48F819885009753
:1024B00069F060C02F8138852230310589F18F8124
:1024C00098858330910509F440C054C0ABE3B0E077
:1024D000EBE3F0E08081482F8B81282F30E081E012
:1024E00090E0022E02C0880F991F0A94E2F78095AF
:1024F00084238C93BDC0A8E3B0E0E8E3F0E08081E2
:10250000482F8B81282F30E081E090E0022E02C01E
:10251000880F991F0A94E2F7809584238C93A8C0B2
:10252000A5E3B0E0E5E3F0E08081482F8B81282F20
:1025300030E081E090E0022E02C0880F991F0A94DB
:10254000E2F7809584238C9393C0A2E3B0E0E2E3AA
:10255000F0E08081482F8B81282F30E081E090E0EF
:10256000022E02C0880F991F0A94E2F780958423F7
:102570008C937EC081E089837BC08C81813009F09F
:1025800072C08A81282F30E03E832D838D819E8109
:102590008130910549F12D813E81223031052CF4A5
:1025A0008D819E81009761F05BC02D813E8122303C
:1025B000310571F18D819E8183309105E9F150C023
:1025C000ABE3B0E0EBE3F0E08081482F8B81282F74
:1025D00030E081E090E0022E02C0880F991F0A943B
:1025E000E2F7842B8C9344C0A8E3B0E0E8E3F0E08A
:1025F0008081482F8B81282F30E081E090E0022EEF
:1026000002C0880F991F0A94E2F7842B8C9330C084
:10261000A5E3B0E0E5E3F0E08081482F8B81282F2F
:1026200030E081E090E0022E02C0880F991F0A94EA
:10263000E2F7842B8C931CC0A2E3B0E0E2E3F0E06D
:102640008081482F8B81282F30E081E090E0022E9E
:1026500002C0880F991F0A94E2F7842B8C9308C05C
:1026600081E0898305C081E0898302C081E089839C
:10267000898128960FB6F894DEBF0FBECDBFCF91EB
:10268000DF910895DF93CF93CDB7DEB727970FB6CD
:10269000F894DEBF0FBECDBF8A836B835D834C830E
:1026A00019828B81883008F074C08A81282F30E02D
:1026B0003F832E834E815F814130510559F18E81D8
:1026C0009F818230910534F42E813F81211531059F
:1026D00069F05CC04E815F814230510579F18E8195
:1026E0009F818330910509F43DC050C0E9E3F0E0DB
:1026F0008081282F30E08B81882F90E0A90102C0D3
:10270000559547958A95E2F7CA018170EC81FD8164
:10271000808341C0E6E3F0E08081282F30E08B81A8
:10272000882F90E0A90102C0559547958A95E2F758
:10273000CA018170EC81FD8180832DC0E3E3F0E06C
:102740008081282F30E08B81882F90E0A90102C082
:10275000559547958A95E2F7CA018170EC81FD8114
:10276000808319C0E0E3F0E08081282F30E08B8186
:10277000882F90E0A90102C0559547958A95E2F708
:10278000CA018170EC81FD81808305C081E089836D
:1027900002C081E08983898127960FB6F894DEBF55
:1027A0000FBECDBFCF91DF910895DF93CF930F92EE
:1027B000CDB7DEB783E065E041E00E941E118EE0F8
:1027C0000E94470780E29EE40E94A60E82E00E94DB
:1027D0006D0982E060E00E94450B0F90CF91DF9180
:1027E0000895DF93CF930F92CDB7DEB783E064E017
:1027F00041E00E941E118EE00E94470780E29EE4A5
:102800000E94A60E82E00E946D0982E061E00E94B3
:10281000450B0F90CF91DF910895DF93CF93CDB704
:10282000DEB72A970FB6F894DEBF0FBECDBF6E831A
:102830007F83888799871D821C821B826E817F819E
:102840008885998520E030E044E353E40E945504F4
:102850001816CCF16E817F818885998520E030E063
:1028600040E050E00E94F50388236CF188EE93E08D
:102870009A83898389819A81CC01A0E0B0E0BC0170
:10288000CD010E94D904DC01CB01BC01CD012E8118
:102890003F81488559850E941F02DC01CB01BC01A4
:1028A000CD0120E030E044E353E40E941903DC0151
:1028B000CB01BC01CD010E944900DC01CB01885154
:1028C0009C4F9C838B83EAE4F0E08B819C81918315
:1028D00080832A960FB6F894DEBF0FBECDBFCF918E
:1028E000DF910895DF93CF93CDB7DEB72B970FB667
:1028F000F894DEBF0FBECDBF6E837F838887998734
:102900001D821C821B821B866E817F818885998532
:1029100020E030E044E353E40E945504181614F01C
:1029200081E08B8781E09B858927882309F048C057
:102930001A866E817F818885998520E030E040E0AD
:1029400050E00E94F503882314F081E08A8781E03B
:102950009A8589278823A1F588EE93E09A83898355
:1029600089819A81CC01A0E0B0E0BC01CD010E9438
:10297000D904DC01CB01BC01CD012E813F8148850A
:1029800059850E941F02DC01CB01BC01CD0120E072
:1029900030E044E353E40E941903DC01CB01BC01A5
:1029A000CD010E944900DC01CB0188519C4F9C83E2
:1029B0008B83E8E4F0E08B819C819183808302C06B
:1029C00081E08D838D812B960FB6F894DEBF0FBE0C
:1029D000CDBFCF91DF910895DF93CF93CDB7DEB711
:1029E0006B970FB6F894DEBF0FBECDBF6E8B7F8B9B
:1029F000888F998F1D8A1C8A1B8A1B8E6E897F89FE
:102A0000888D998D20E030E044E353E40E94550422
:102A1000181614F081E08B8F81E09B8D8927882325
:102A200009F0CDC01A8E6E897F89888D998D20E03E
:102A300030E040E050E00E94F503882314F081E08C
:102A40008A8F81E09A8D8927882309F0B8C088EEA3
:102A500093E09A8B898B89899A89CC01A0E0B0E0B8
:102A6000BC01CD010E94D904DC01CB01BC01CD0128
:102A70002E893F89488D598D0E941F02DC01CB01B0
:102A8000BC01CD0120E030E044E353E40E9419038F
:102A9000DC01CB01BC01CD010E944900DC01CB016E
:102AA00088519C4F9C8B8B8B88EE93E0988B8F8703
:102AB0007DC0EAE4F0E08F8598899183808380E08F
:102AC00090E0A0EAB1E48B879C87AD87BE876B85D9
:102AD0007C858D859E8520E030E04AEF54E40E949D
:102AE0001F02DC01CB018F839887A987BA876F818A
:102AF000788589859A8520E030E040E85FE30E9490
:102B0000250488232CF481E090E09E838D833FC0D0
:102B10006F81788589859A8520E03FEF4FE757E4FC
:102B20000E94C50318164CF56B857C858D859E85A6
:102B300020E030E040E251E40E941F02DC01CB01C2
:102B4000BC01CD010E944900DC01CB019E838D8335
:102B50000FC088EC90E09C838B838B819C810197D4
:102B6000F1F79C838B838D819E8101979E838D835A
:102B70008D819E81009769F714C06F817885898562
:102B80009A850E944900DC01CB019E838D838D8153
:102B90009E819A83898389819A810197F1F79A832B
:102BA00089838F8598890596988B8F872F8538899B
:102BB0008B899C898217930708F07BCF02C081E044
:102BC0008D8B8D896B960FB6F894DEBF0FBECDBF8F
:102BD000CF91DF910895DF93CF93CDB7DEB76B9799
:102BE0000FB6F894DEBF0FBECDBF6E8B7F8B888F84
:102BF000998F1D8A1C8A1B8A1B8E6E897F89888DFE
:102C0000998D20E030E044E353E40E945504181607
:102C100014F081E08B8F81E09B8D8927882309F058
:102C2000D3C01A8E6E897F89888D998D20E030E01F
:102C300040E050E00E94F503882314F081E08A8F81
:102C400081E09A8D8927882309F0BEC088EE93E041
:102C50009A8B898B89899A89CC01A0E0B0E0BC016C
:102C6000CD010E94D904DC01CB01BC01CD012E892C
:102C70003F89488D598D0E941F02DC01CB01BC01A8
:102C8000CD0120E030E044E353E40E941903DC016D
:102C9000CB01BC01CD010E944900DC01CB01885170
:102CA0009C4F9C8B8B8BEAE4F0E0808191819A8B26
:102CB000898B89899A89988B8F877DC0EAE4F0E0B7
:102CC0008F8598899183808380E090E0A0EAB1E4C9
:102CD0008B879C87AD87BE876B857C858D859E8520
:102CE00020E030E04AEF54E40E941F02DC01CB01F7
:102CF0008F839887A987BA876F81788589859A8518
:102D000020E030E040E85FE30E94250488232CF4B3
:102D100081E090E09E838D833FC06F8178858985B7
:102D20009A8520E03FEF4FE757E40E94C50318164D
:102D30004CF56B857C858D859E8520E030E040E2FA
:102D400051E40E941F02DC01CB01BC01CD010E94B5
:102D50004900DC01CB019E838D830FC088EC90E09D
:102D60009C838B838B819C810197F1F79C838B8360
:102D70008D819E8101979E838D838D819E81009799
:102D800069F714C06F81788589859A850E9449000A
:102D9000DC01CB019E838D838D819E819A83898303
:102DA00089819A810197F1F79A8389838F85988920
:102DB0000597988B8F872F8538898B899C89281751
:102DC000390708F07BCF02C081E08D8B8D896B962F
:102DD0000FB6F894DEBF0FBECDBFCF91DF9108953F
:102DE000DF93CF93CDB7DEB76B970FB6F894DEBF06
:102DF0000FBECDBF6E8B7F8B888F998F1D8A1C8AEB
:102E00001B8A1B8E6E897F89888D998D20E030E02A
:102E100044E353E40E945504181614F081E08B8FAC
:102E200081E09B8D8927882309F0CDC01A8E6E8999
:102E30007F89888D998D20E030E040E050E00E944D
:102E4000F503882314F081E08A8F81E09A8D892729
:102E5000882309F0B8C088EE93E09A8B898B898922
:102E60009A89CC01A0E0B0E0BC01CD010E94D90458
:102E7000DC01CB01BC01CD012E893F89488D598DE4
:102E80000E941F02DC01CB01BC01CD0120E030E03B
:102E900044E353E40E941903DC01CB01BC01CD01E2
:102EA0000E944900DC01CB0188519C4F9C8B8B8B8D
:102EB00088EE93E0988B8F877DC0E8E4F0E08F8503
:102EC00098899183808380E090E0A0EAB1E48B87C9
:102ED0009C87AD87BE876B857C858D859E8520E030
:102EE00030E04AEF54E40E941F02DC01CB018F83E3
:102EF0009887A987BA876F81788589859A8520E028
:102F000030E040E85FE30E94250488232CF481E050
:102F100090E09E838D833FC06F81788589859A85F7
:102F200020E03FEF4FE757E40E94C50318164CF529
:102F30006B857C858D859E8520E030E040E251E404
:102F40000E941F02DC01CB01BC01CD010E9449009F
:102F5000DC01CB019E838D830FC088EC90E09C83C5
:102F60008B838B819C810197F1F79C838B838D816F
:102F70009E8101979E838D838D819E81009769F745
:102F800014C06F81788589859A850E944900DC018B
:102F9000CB019E838D838D819E819A8389838981D4
:102FA0009A810197F1F79A8389838F85988905968D
:102FB000988B8F872F8538898B899C8982179307F7
:102FC00008F07BCF02C081E08D8B8D896B960FB6A8
:102FD000F894DEBF0FBECDBFCF91DF910895DF9390
:102FE000CF93CDB7DEB76B970FB6F894DEBF0FBEA9
:102FF000CDBF6E8B7F8B888F998F1D8A1C8A1B8A11
:103000001B8E6E897F89888D998D20E030E044E3A6
:1030100053E40E945504181614F081E08B8F81E070
:103020009B8D8927882309F0D3C01A8E6E897F89EA
:10303000888D998D20E030E040E050E00E94F5035B
:10304000882314F081E08A8F81E09A8D8927882374
:1030500009F0BEC088EE93E09A8B898B89899A89A2
:10306000CC01A0E0B0E0BC01CD010E94D904DC019C
:10307000CB01BC01CD012E893F89488D598D0E941D
:103080001F02DC01CB01BC01CD0120E030E044E3B4
:1030900053E40E941903DC01CB01BC01CD010E9465
:1030A0004900DC01CB0188519C4F9C8B8B8BE8E461
:1030B000F0E0808191819A8B898B89899A89988B9C
:1030C0008F877DC0E8E4F0E08F85988991838083C5
:1030D00080E090E0A0EAB1E48B879C87AD87BE8753
:1030E0006B857C858D859E8520E030E04AEF54E439
:1030F0000E941F02DC01CB018F839887A987BA87C2
:103100006F81788589859A8520E030E040E85FE32B
:103110000E94250488232CF481E090E09E838D8317
:103120003FC06F81788589859A8520E03FEF4FE722
:1031300057E40E94C50318164CF56B857C858D8578
:103140009E8520E030E040E251E40E941F02DC0155
:10315000CB01BC01CD010E944900DC01CB019E8363
:103160008D830FC088EC90E09C838B838B819C8146
:103170000197F1F79C838B838D819E8101979E83BC
:103180008D838D819E81009769F714C06F8178854A
:1031900089859A850E944900DC01CB019E838D833D
:1031A0008D819E819A83898389819A810197F1F724
:1031B0009A8389838F8598890597988B8F872F8528
:1031C00038898B899C892817390708F07BCF02C082
:1031D00081E08D8B8D896B960FB6F894DEBF0FBEA4
:1031E000CDBFCF91DF910895DF93CF9300D0CDB7BE
:1031F000DEB70E94D51360E070E082E093E40E94A5
:10320000EC1460E070E080E090E00E94EB15F3CFFA
:103210002F923F924F925F926F927F928F929F92E6
:10322000AF92BF92CF92DF92EF92FF920F931F93D4
:10323000CF93DF93CDB7DEB7CA1BDB0B0FB6F89485
:10324000DEBF0FBECDBF09942A88398848885F84C5
:103250006E847D848C849B84AA84B984C884DF8036
:10326000EE80FD800C811B81AA81B981CE0FD11D1A
:103270000FB6F894DEBF0FBECDBFED010895F894F0
:02328000FFCF7E
:10328200000000000000000000010202030303032B
:1032920004040404040404040505050505050505E4
:1032A20005050505050505050606060606060606C4
:1032B20006060606060606060606060606060606AC
:1032C2000606060606060606070707070707070794
:1032D200070707070707070707070707070707077C
:1032E200070707070707070707070707070707076C
:1032F200070707070707070707070707070707075C
:103302000707070707070707080808080808080843
:10331200080808080808080808080808080808082B
:10332200080808080808080808080808080808081B
:10333200080808080808080808080808080808080B
:1033420008080808080808080808080808080808FB
:1033520008080808080808080808080808080808EB
:1033620008080808080808080808080808080808DB
:1033720008080808080808080808080808080808CB
:08338200080808080808080803
:00000001FF
